{
  "_format": "hh3-artifact-1",
  "contractName": "Ordine",
  "sourceName": "contracts/ordine.sol",
  "abi": [
    {
      "anonymous": false,
      "inputs": [
        {
          "indexed": false,
          "internalType": "string",
          "name": "id",
          "type": "string"
        },
        {
          "indexed": false,
          "internalType": "string",
          "name": "indirizzoConsegna",
          "type": "string"
        },
        {
          "indexed": false,
          "internalType": "string",
          "name": "nomeCliente",
          "type": "string"
        },
        {
          "indexed": false,
          "internalType": "string",
          "name": "cognomeCliente",
          "type": "string"
        },
        {
          "indexed": false,
          "internalType": "string",
          "name": "citofono",
          "type": "string"
        }
      ],
      "name": "OrdineCreato",
      "type": "event"
    },
    {
      "inputs": [
        {
          "internalType": "string",
          "name": "_id",
          "type": "string"
        },
        {
          "internalType": "string",
          "name": "_indirizzoConsegna",
          "type": "string"
        },
        {
          "internalType": "string",
          "name": "_nomeCliente",
          "type": "string"
        },
        {
          "internalType": "string",
          "name": "_cognomeCliente",
          "type": "string"
        },
        {
          "internalType": "string",
          "name": "_citofono",
          "type": "string"
        }
      ],
      "name": "creaOrdine",
      "outputs": [],
      "stateMutability": "nonpayable",
      "type": "function"
    },
    {
      "inputs": [
        {
          "internalType": "string",
          "name": "_id",
          "type": "string"
        }
      ],
      "name": "getOrdine",
      "outputs": [
        {
          "internalType": "string",
          "name": "",
          "type": "string"
        },
        {
          "internalType": "string",
          "name": "",
          "type": "string"
        },
        {
          "internalType": "string",
          "name": "",
          "type": "string"
        },
        {
          "internalType": "string",
          "name": "",
          "type": "string"
        },
        {
          "internalType": "string",
          "name": "",
          "type": "string"
        }
      ],
      "stateMutability": "view",
      "type": "function"
    }
  ],
  "bytecode": "0x608060405234801561001057600080fd5b506108b0806100206000396000f3fe608060405234801561001057600080fd5b50600436106100365760003560e01c80633125cf6f1461003b578063343f792214610050575b600080fd5b61004e610049366004610549565b61007d565b005b61006361005e36600461061b565b61016f565b6040516100749594939291906106a8565b60405180910390f35b6040518060a00160405280868152602001858152602001848152602001838152602001828152506000866040516100b49190610715565b908152604051908190036020019020815181906100d190826107ba565b50602082015160018201906100e690826107ba565b50604082015160028201906100fb90826107ba565b506060820151600382019061011090826107ba565b506080820151600482019061012590826107ba565b509050507f4d585c79ea9adbf4cc01fb6aa8711f84984bb16fbc2324dcd15b33586cea27ca85858585856040516101609594939291906106a8565b60405180910390a15050505050565b6060806060806060600080876040516101889190610715565b90815260200160405180910390206040518060a00160405290816000820180546101b190610731565b80601f01602080910402602001604051908101604052809291908181526020018280546101dd90610731565b801561022a5780601f106101ff5761010080835404028352916020019161022a565b820191906000526020600020905b81548152906001019060200180831161020d57829003601f168201915b5050505050815260200160018201805461024390610731565b80601f016020809104026020016040519081016040528092919081815260200182805461026f90610731565b80156102bc5780601f10610291576101008083540402835291602001916102bc565b820191906000526020600020905b81548152906001019060200180831161029f57829003601f168201915b505050505081526020016002820180546102d590610731565b80601f016020809104026020016040519081016040528092919081815260200182805461030190610731565b801561034e5780601f106103235761010080835404028352916020019161034e565b820191906000526020600020905b81548152906001019060200180831161033157829003601f168201915b5050505050815260200160038201805461036790610731565b80601f016020809104026020016040519081016040528092919081815260200182805461039390610731565b80156103e05780601f106103b5576101008083540402835291602001916103e0565b820191906000526020600020905b8154815290600101906020018083116103c357829003601f168201915b505050505081526020016004820180546103f990610731565b80601f016020809104026020016040519081016040528092919081815260200182805461042590610731565b80156104725780601f1061044757610100808354040283529160200191610472565b820191906000526020600020905b81548152906001019060200180831161045557829003601f168201915b5050509190925250508151602083015160408401516060850151608090950151929c919b5099509297509550909350505050565b634e487b7160e01b600052604160045260246000fd5b600082601f8301126104cd57600080fd5b813567ffffffffffffffff808211156104e8576104e86104a6565b604051601f8301601f19908116603f01168101908282118183101715610510576105106104a6565b8160405283815286602085880101111561052957600080fd5b836020870160208301376000602085830101528094505050505092915050565b600080600080600060a0868803121561056157600080fd5b853567ffffffffffffffff8082111561057957600080fd5b61058589838a016104bc565b9650602088013591508082111561059b57600080fd5b6105a789838a016104bc565b955060408801359150808211156105bd57600080fd5b6105c989838a016104bc565b945060608801359150808211156105df57600080fd5b6105eb89838a016104bc565b9350608088013591508082111561060157600080fd5b5061060e888289016104bc565b9150509295509295909350565b60006020828403121561062d57600080fd5b813567ffffffffffffffff81111561064457600080fd5b610650848285016104bc565b949350505050565b60005b8381101561067357818101518382015260200161065b565b50506000910152565b60008151808452610694816020860160208601610658565b601f01601f19169290920160200192915050565b60a0815260006106bb60a083018861067c565b82810360208401526106cd818861067c565b905082810360408401526106e1818761067c565b905082810360608401526106f5818661067c565b90508281036080840152610709818561067c565b98975050505050505050565b60008251610727818460208701610658565b9190910192915050565b600181811c9082168061074557607f821691505b60208210810361076557634e487b7160e01b600052602260045260246000fd5b50919050565b601f8211156107b557600081815260208120601f850160051c810160208610156107925750805b601f850160051c820191505b818110156107b15782815560010161079e565b5050505b505050565b815167ffffffffffffffff8111156107d4576107d46104a6565b6107e8816107e28454610731565b8461076b565b602080601f83116001811461081d57600084156108055750858301515b600019600386901b1c1916600185901b1785556107b1565b600085815260208120601f198616915b8281101561084c5788860151825594840194600190910190840161082d565b508582101561086a5787850151600019600388901b60f8161c191681555b5050505050600190811b0190555056fea264697066735822122026e92b77a0faa8f276a1d52bbc8a79d3a36decebf039a3cb7061240230c9322a64736f6c63430008130033",
  "linkReferences": {},
  "deployedLinkReferences": {},
  "immutableReferences": {},
  "inputSourceName": "project/contracts/ordine.sol",
  "buildInfoId": "solc-0_8_19-c3bbca79434133d7e5d3376d52db55cc27691bc8"
}